{
  "transactions": [
    {
      "hash": "0x79efbeb56b4bcbcc7702d9b3a362e119619d68f4405d0ec9721962bfa8a208b7",
      "transactionType": "CALL",
      "contractName": null,
      "contractAddress": "0xfd8d9995d894f8cb0b9898bf4dfb64ef03ff9725",
      "function": "addFollows(bytes32,bytes32[])",
      "arguments": [
        "0x907cf04b19077519eedb812c58f5c6978be3d3f9507e1b530c9a4fd2c3ff1bfc",
        "[0x92989a3525ec0a673a1f3db9770978cd429577929a928a8e5dcddc59bcdc3e79]"
      ],
      "transaction": {
        "from": "0x869140c91edf43214a3ecedeaf777cc7107ad71a",
        "to": "0xfd8d9995d894f8cb0b9898bf4dfb64ef03ff9725",
        "gas": "0x1cdea",
        "value": "0x0",
        "input": "0x0dea28b7907cf04b19077519eedb812c58f5c6978be3d3f9507e1b530c9a4fd2c3ff1bfc0000000000000000000000000000000000000000000000000000000000000040000000000000000000000000000000000000000000000000000000000000000192989a3525ec0a673a1f3db9770978cd429577929a928a8e5dcddc59bcdc3e79",
        "nonce": "0xdd",
        "chainId": "0x14a34"
      },
      "additionalContracts": [],
      "isFixedGasLimit": false
    }
  ],
  "receipts": [
    {
      "status": "0x1",
      "cumulativeGasUsed": "0x35ebe4",
      "logs": [
        {
          "address": "0xfd8d9995d894f8cb0b9898bf4dfb64ef03ff9725",
          "topics": [
            "0x289d31b5f2c0d6918019b18b03ba9e736ac2e97adf792adb50de0dac787927b6",
            "0x92989a3525ec0a673a1f3db9770978cd429577929a928a8e5dcddc59bcdc3e79"
          ],
          "data": "0x907cf04b19077519eedb812c58f5c6978be3d3f9507e1b530c9a4fd2c3ff1bfc",
          "blockHash": "0xc40de798f07eda97149c5e9433abb95841217ce4e247e81f1adddc1a535a8278",
          "blockNumber": "0xe34897",
          "transactionHash": "0x79efbeb56b4bcbcc7702d9b3a362e119619d68f4405d0ec9721962bfa8a208b7",
          "transactionIndex": "0xb",
          "logIndex": "0x4c",
          "removed": false
        },
        {
          "address": "0xfd8d9995d894f8cb0b9898bf4dfb64ef03ff9725",
          "topics": [
            "0x990381ee3b19d176cd729222f938287447ef764e39c1fec96e50171bec0f3cdf",
            "0x907cf04b19077519eedb812c58f5c6978be3d3f9507e1b530c9a4fd2c3ff1bfc"
          ],
          "data": "0x0000000000000000000000000000000000000000000000000000000000000020000000000000000000000000000000000000000000000000000000000000000192989a3525ec0a673a1f3db9770978cd429577929a928a8e5dcddc59bcdc3e79",
          "blockHash": "0xc40de798f07eda97149c5e9433abb95841217ce4e247e81f1adddc1a535a8278",
          "blockNumber": "0xe34897",
          "transactionHash": "0x79efbeb56b4bcbcc7702d9b3a362e119619d68f4405d0ec9721962bfa8a208b7",
          "transactionIndex": "0xb",
          "logIndex": "0x4d",
          "removed": false
        }
      ],
      "logsBloom": "0x000000000000000000000000000000003000000000000000000000010000000000000000000000000000000000000004000000000000000000001000000000000000000000000010000000000000000000000000000000000200000000000000000000000000020000000000000000000000000000000000000000000000000000080000080000000000000000000000000000000000000000000000000000000000000000000000000000000000000000000000000000000000000000000000000000000000000000000021000000000000000000c0000000000000000000000000000000000000000000000080000000000000000000000000000000000000",
      "type": "0x2",
      "transactionHash": "0x79efbeb56b4bcbcc7702d9b3a362e119619d68f4405d0ec9721962bfa8a208b7",
      "transactionIndex": "0xb",
      "blockHash": "0xc40de798f07eda97149c5e9433abb95841217ce4e247e81f1adddc1a535a8278",
      "blockNumber": "0xe34897",
      "gasUsed": "0x14e6c",
      "effectiveGasPrice": "0xd3b69",
      "from": "0x869140c91edf43214a3ecedeaf777cc7107ad71a",
      "to": "0xfd8d9995d894f8cb0b9898bf4dfb64ef03ff9725",
      "contractAddress": null,
      "l1BaseFeeScalar": "0x44d",
      "l1BlobBaseFee": "0x2dd581e6f22",
      "l1BlobBaseFeeScalar": "0xa118b",
      "l1Fee": "0xea2d6e0d1980",
      "l1GasPrice": "0x25ecd1d10",
      "l1GasUsed": "0x7be"
    }
  ],
  "libraries": [],
  "pending": [],
  "returns": {},
  "timestamp": 1725558805,
  "chain": 84532,
  "commit": "f9814b0"
}